:020000040000FA
:040000007FEF00F09E
:100008005182F3CF09F0F4CF0AF0F6CF0BF0F7CF17
:100018000CF0F8CF0DF0F5CF0EF0F2A416EF00F0CB
:1000280018EF00F071EF00F0F294F9C0D6FF00016C
:10003800FA51D76E470E4C24F66E7E0E4D20F76EA1
:100048000800F5504A6E4B6A4AC001F04BC002F0F6
:10005800F7C003F0F8C004F093EC1AF002504A6EAF
:100068004B6AD8900001F831086EF731076E0750D7
:100078004A5E08504B5AF5514A26F6514B224BBE60
:100088004CEF00F04B04D8A04CEF00F04EEF00F01E
:1000980051EF00F04E685EEF00F04BBE58EF00F0F5
:1000A80056EF00F05CEF00F0000E4E6E5EEF00F0D1
:1000B8004AC04EF04EC083FF4C4A4D2A680E4C1879
:1000C80006E14D04D8A46BEF00F06DEF00F071EF7E
:1000D80000F0000E4D6E000E4C6E0EC0F5FF0DC008
:1000E800F8FF0CC0F7FF0BC0F6FF0AC0F4FF09C009
:1000F800F3FF519211001AEF18F0000E0001B06FD3
:10010800000EAF6F8BC0C1F08CC0C2F08DC0C3F0C1
:100118008EC0C4F0C4BF95EF00F093EF00F0ABEFD2
:1001280000F0000EB06F010EAF6FC1C00FF0C2C07B
:1001380010F0C3C011F0C4C012F02DEC1AF00FC0BB
:10014800C1F010C0C2F011C0C3F012C0C4F0000E5C
:100158000001C86F000EC76FF1C0B3F0F2C0B4F071
:10016800AF51B011D8A4BBEF00F0BDEF00F0C4EF61
:1001780000F048A4C2EF00F0C4EF00F0DEEF00F09A
:10018800AF51B011D8A4CBEF00F0CDEF00F0D3EF12
:1001980000F0000E966F2B0E956FD7EF00F0000E53
:1001A800966F2D0E956F95C016F1C74BC82BB307E8
:1001B800D8A0B407C1C00FF0C2C010F0C3C011F07E
:1001C800C4C012F003EC15F00F041010D8A4EFEF20
:1001D80000F0F1EF00F048EF01F0BF0E0001906F62
:1001E800FF0E916F8F51926F936B9051922791519F
:1001F800932393510AE11A0E925DD8A006EF01F0FD
:1002080009EF01F0010E0AEF01F0000E976F986BED
:1002180097519811D8B413EF01F015EF01F023EFBF
:1002280001F0160EC7250F6E010EC821106EEC0ED8
:10023800116E7F0E126E2DEC19F02FEF01F0160ED5
:10024800C7250F6E010EC821106EF40E116E7F0EB9
:10025800126E2DEC19F00001FD0EB327FF0EB4232A
:1002680089C01FF08AC020F0160E216E010E226E82
:10027800B3C023F0B4C024F0B4EC16F01FC089F06A
:1002880020C08AF0AEEF06F0C1C00FF0C2C010F077
:10029800C3C011F0C4C012F003EC15F00F501010D9
:1002A800D8A459EF01F05BEF01F09BEF01F0BF0E0E
:1002B8000001906FFF0E916F8F51926F936B905169
:1002C80092279151932393510AE11A0E925DD8A077
:1002D80070EF01F073EF01F0010E74EF01F0000E02
:1002E800996F9A6B99519A11D8B47DEF01F07FEF0D
:1002F80001F08DEF01F0160EC7250F6E010EC82113
:10030800106EF00E116E7F0E126E2DEC19F02FEF9D
:1003180001F0160EC7250F6E010EC821106EF80EDB
:10032800116E7F0E126E2DEC19F02FEF01F0000EFA
:100338000001C96F000ECA6F800ECB6F3F0ECC6FE5
:10034800000EC66F000EC56FC1C00FF0C2C010F01E
:10035800C3C011F0C4C012F0000E136E000E146E6C
:10036800000E156E000E166EC5EC17F0D8B0BFEF74
:1003780001F0C1EF01F046EF02F0E0EF01F0C9C073
:100388003CF0CAC03DF0CBC03EF0CCC03FF0000E00
:10039800406E000E416E200E426E410E436EC6EC5A
:1003A8000BF03CC0C9F03DC0CAF03EC0CBF03FC026
:1003B800CCF00001C54BC62BC1C071F0C2C072F0B1
:1003C800C3C073F0C4C074F0000E406E000E416EDE
:1003D800200E426E410E436EC9C03CF0CAC03DF0CB
:1003E800CBC03EF0CCC03FF0C6EC0BF03CC075F083
:1003F8003DC076F03EC077F03FC078F080EC14F056
:100408000001D8B00AEF02F00CEF02F0C3EF01F0E0
:100418002CEF02F0C9C023F0CAC024F0CBC025F0ED
:10042800CCC026F0000E276E000E286E200E296E16
:10043800410E2A6EDCEC0DF023C0C9F024C0CAF0CE
:1004480025C0CBF026C0CCF00001C507D8A0C60750
:10045800C1C071F0C2C072F0C3C073F0C4C074F000
:10046800C9C075F0CAC076F0CBC077F0CCC078F0C0
:1004780080EC14F00001D8A044EF02F046EF02F03F
:100488000EEF02F08FC015F0166ACDEC18F015507B
:100498000001B66FB6C0B5F0670EB619D8A457EF0D
:1004A80002F059EF02F07FEF02F0F351F411D8A4F3
:1004B80060EF02F062EF02F066EF02F0000EF46FF8
:1004C800010EF36FF4BF73EF02F0F45106E1F30588
:1004D800D8B071EF02F073EF02F079EF02F0000E7E
:1004E800B26F060EB16F88EF02F0F3C0B1F0F4C03E
:1004F800B2F088EF02F0F4BF84EF02F086EF02F06A
:1005080073EF02F079EF02F0670EB619D8A48FEFF7
:1005180002F091EF02F0C0EF02F0C6AF9FEF02F0D9
:10052800FC0EC55DFF0EC659D8A09DEF02F09FEFE7
:1005380002F0BEEF02F0FF0E906FFF0E916FB1C098
:1005480092F0B2C093F09051922791519323C551E4
:10055800925D9351800A946FC651800A9459D8A02D
:10056800B8EF02F0BAEF02F0BEEF02F0660EB56F18
:10057800C0EF02F0650EB56FB1C0A7F0B2C0A8F029
:10058800670EB619D8A4CBEF02F0CDEF02F0DDEF7D
:1005980002F0660EB519D8A4D4EF02F0D6EF02F037
:1005A800DFEF02F0C6BFDDEF02F0DBEF02F0DFEFB6
:1005B80002F0A74BA82B660EB519D8A4E6EF02F0F7
:1005C800E8EF02F008EF03F0C6BFEFEF02F0EDEF3F
:1005D80002F0FBEF02F0000EC96F000ECA6F800E2A
:1005E800CB6F3F0ECC6F000EC66F000EC56F670E47
:1005F800B619D8B402EF03F004EF03F008EF03F0E4
:10060800C551A727C651A823000EC06F000EBF6FA3
:10061800C1C0B7F0C2C0B8F0C3C0B9F0C4C0BAF026
:10062800C9C0A9F0CAC0AAF0CBC0ABF0CCC0ACF02E
:1006380099EF03F0B7C023F0B8C024F0B9C025F093
:10064800BAC026F0C9C027F0CAC028F0CBC029F02C
:10065800CCC02AF0DCEC0DF023C03CF024C03DF007
:1006680025C03EF026C03FF04FEC11F03CC0BBF077
:100678003DC0BCF03EC0BDF03FC0BEF0BBC071F095
:10068800BCC072F0BDC073F0BEC074F0FCEC13F0D7
:1006980071C0ADF072C0AEF0B7C081F0B8C082F0E2
:1006A800B9C083F0BAC084F0C9C040F0CAC041F0F4
:1006B800CBC042F0CCC043F0BBC03CF0BCC03DF066
:1006C800BDC03EF0BEC03FF0C6EC0BF03CC085F0AC
:1006D8003DC086F03EC087F03FC088F0AEEC19F010
:1006E80081C0B7F082C0B8F083C0B9F084C0BAF056
:1006F800C9C023F0CAC024F0CBC025F0CCC026F076
:10070800000E276E000E286E200E296E410E2A6EEE
:10071800DCEC0DF023C0C9F024C0CAF025C0CBF032
:1007280026C0CCF00001BF4BC02BA751BF5DC05104
:10073800800A906FA851800A9059D8A0A6EF03F0BC
:10074800A8EF03F01EEF03F0C9C03CF0CAC03DF0AB
:10075800CBC03EF0CCC03FF0000E406E000E416EA4
:10076800A00E426E400E436EC6EC0BF03CC0BBF0D0
:100778003DC0BCF03EC0BDF03FC0BEF0B7C071F098
:10078800B8C072F0B9C073F0BAC074F0BBC075F0ED
:10079800BCC076F0BDC077F0BEC078F080EC14F035
:1007A8000001D8B0DAEF03F0DCEF03F0E6EF03F076
:1007B800000EBB6F000EBC6F000EBD6F000EBE6F4B
:1007C8000FEF04F0B7C00FF0B8C010F0B9C011F0C7
:1007D800BAC012F0BBC013F0BCC014F0BDC015F015
:1007E800BEC016F0C5EC17F0D8A0FDEF03F0FFEF80
:1007F80003F00FEF04F00001ADB105EF04F007EFCF
:1008080004F00FEF04F0000EBB6F000EBC6F000E7B
:10081800BD6F000EBE6FC1C071F0C2C072F0C3C020
:1008280073F0C4C074F0BBC075F0BCC076F0BDC036
:1008380077F0BEC078F065EC09F071C0B7F072C00F
:10084800B8F073C0B9F074C0BAF0B7C071F0B8C0EE
:1008580072F0B9C073F0BAC074F0000E406E000EAA
:10086800416E200E426E410E436EA9C03CF0AAC0F4
:100878003DF0ABC03EF0ACC03FF0C6EC0BF03CC066
:1008880075F03DC076F03EC077F03FC078F080EC60
:1008980014F00001D8A053EF04F055EF04F07DEFF9
:1008A80004F0C54BC62BA9C03CF0AAC03DF0ABC0B4
:1008B8003EF0ACC03FF0000E406E000E416E200EC0
:1008C800426E410E436EC6EC0BF03CC0A9F03DC031
:1008D800AAF03EC0ABF03FC0ACF0660E0001B519FF
:1008E800D8A479EF04F07BEF04F07DEF04F0A74B78
:1008F800A82BA9C0C9F0AAC0CAF0ABC0CBF0ACC045
:10090800CCF0650EB519D8B48CEF04F08EEF04F076
:1009180094EF04F0C5C0A5F0C6C0A6F098EF04F0A7
:10092800000EA66F000EA56F000EA46F000EA36F39
:10093800000EA26F000EA16F000EC06F000EBF6FF9
:1009480094EF05F0B7C023F0B8C024F0B9C025F083
:10095800BAC026F0C9C027F0CAC028F0CBC029F019
:10096800CCC02AF0DCEC0DF023C03CF024C03DF0F4
:1009780025C03EF026C03FF04FEC11F03CC0BBF064
:100988003DC0BCF03EC0BDF03FC0BEF0BBC071F082
:10099800BCC072F0BDC073F0BEC074F0FCEC13F0C4
:1009A80071C0ADF072C0AEF048B8DDEF04F0DFEF13
:1009B80004F0FDEF04F00001AD51AE11D8A4E7EF4B
:1009C80004F0E9EF04F0FDEF04F0670EB619D8A4BF
:1009D800F0EF04F0F2EF04F0FDEF04F0A6BFF9EF3A
:1009E80004F0F7EF04F0FDEF04F0A14BA22B48EF61
:1009F80005F00001A351A411D8A405EF05F007EFF5
:100A080005F031EF05F0A6BF0EEF05F00CEF05F08D
:100A180031EF05F0160EC725D96E010EC821DA6E22
:100A28002E0EDF6EC74BC82BB307D8A0B407000E35
:100A3800A46F010EA36F31EF05F0160EC725D96E0E
:100A4800010EC821DA6E300EDF6EC74BC82BB30714
:100A5800D8A0B407A107D8A0A207A151A211D8A471
:100A680038EF05F03AEF05F021EF05F0160EC7252F
:100A7800D96E010EC821DA6EAD51300FDF6EC74B4B
:100A8800C82BB307D8A0B407B7C081F0B8C082F0AC
:100A9800B9C083F0BAC084F0C9C040F0CAC041F000
:100AA800CBC042F0CCC043F0BBC03CF0BCC03DF072
:100AB800BDC03EF0BEC03FF0C6EC0BF03CC085F0B8
:100AC8003DC086F03EC087F03FC088F0AEEC19F01C
:100AD80081C0B7F082C0B8F083C0B9F084C0BAF062
:100AE800C9C023F0CAC024F0CBC025F0CCC026F082
:100AF800000E276E000E286E200E296E410E2A6EFB
:100B0800DCEC0DF023C0C9F024C0CAF025C0CBF03E
:100B180026C0CCF00001A507D8A0A607BF4BC02B64
:100B2800A751BF5DC051800A906FA851800A9059A3
:100B3800D8B0A1EF05F0A3EF05F0B1EF05F0C8BFFD
:100B4800AFEF05F0C85109E14B0EC75DD8A0AFEF74
:100B580005F0B1EF05F0A6EF04F0A351A411D8A455
:100B6800B8EF05F0BAEF05F0CBEF05F048A8BFEFF6
:100B780005F0C1EF05F0CBEF05F0160EC725D96ECD
:100B8800010EC821DA6E2E0EDF6EC74BC82B160E6B
:100B9800C725D96E010EC821DA6E000EDF6E650E0C
:100BA800B519D8A4DAEF05F0DCEF05F034EF01F061
:100BB800000EC06F4F0EBF6F160EBF25D96E010E07
:100BC800C021DA6E000EDF6E000EB06F000EAF6F40
:100BD800C6BFF3EF05F0F1EF05F0FBEF05F0000EEF
:100BE800B06F010EAF6FC56DC61FD8B0C62B000E13
:100BF800B26F020EB16F2CEF06F0BF07D8A0C00786
:100C0800160EBF25D96E010EC021DA6EC5C00FF0D1
:100C1800C6C010F0000E126E0A0E116E15EC17F019
:100C28000F50300FDF6EC5C00FF0C6C010F0000EB9
:100C3800126E0A0E116E52EC16F00FC0C5F010C0FD
:100C4800C6F00001B107D8A0B207B307D8A0B4070F
:100C5800C551C611D8A433EF06F035EF06F001EF01
:100C680006F0B2BF42EF06F0B25106E1B105D8B0C6
:100C780040EF06F042EF06F001EF06F0BF07D8A0FC
:100C8800C007AF51B011D8A44CEF06F04EEF06F0F4
:100C980054EF06F0000E9C6F2B0E9B6F58EF06F07A
:100CA800000E9C6F2D0E9B6F160EBF25D96E010E80
:100CB800C021DA6E9BC0DFFFB307D8A0B407BF0717
:100CC800D8A0C007BF0E906FFF0E916F8F51926F23
:100CD800936B905192279151932393510AE11A0EE5
:100CE800925DD8A07AEF06F07DEF06F0010E7EEF58
:100CF80006F0000E9F6FA06B9F51A011D8A487EF3C
:100D080006F089EF06F08FEF06F0000E9E6F650E75
:100D18009D6F93EF06F0000E9E6F450E9D6F160EA9
:100D2800BF25D96E010EC021DA6E9DC0DFFFB30763
:100D3800D8A0B407160EC7250F6E010EC821106E75
:100D4800160EBF25116E010EC021126E2DEC19F082
:100D580034EF01F01200CFC0D9FFD0C0DAFFDECFE8
:100D6800F6FFDDCFF7FF0800F550250AD8A4BFEF3E
:100D780006F0C1EF06F049EF09F0CFC0D9FFD0C0A7
:100D8800DAFFDE2A000EDD22000E0001F26F000EEF
:100D9800F16FF1C048F0F2C049F0F369F469CFC0CF
:100DA800D9FFD0C0DAFFDECFF6FFDDCFF7FF0800AE
:100DB800F5502A0AD8A4E3EF06F0E5EF06F00EEFA7
:100DC80007F0CFC0D9FFD0C0DAFFDE2A000EDD223F
:100DD800D1C0D9FFD2C0DAFFDFCFD3F0020EDE26B2
:100DE800DFCFD4F0000EDD22D3C0D9FFD4C0DAFFA4
:100DF800DECFF1F0DDCFF2F0F2BF07EF07F005EF3D
:100E080007F052EF07F04880F16DF21FD8B0F22BCF
:100E180052EF07F0CFC0D9FFD0C0DAFFDECF16F00F
:100E2800DDCF17F034EC13F016C0F1F017C0F2F074
:100E380025EF07F0CFC0D9FFD0C0DAFFDE2A000EB9
:100E4800DD22D00E0001D36FFF0ED46FCFC0D9FFC3
:100E5800D0C0DAFFDECFF6FFDDCFF7FF0800F55090
:100E6800D56FD66BD351D527D451D623D6510AE1A5
:100E78000A0ED55DD8A043EF07F046EF07F0010E44
:100E880047EF07F0000ED76FD86BD751D811D8A409
:100E980050EF07F052EF07F01EEF07F0CFC0D9FF71
:100EA800D0C0DAFFDECFF6FFDDCFF7FF0800F55040
:100EB8002E0AD8A462EF07F064EF07F0E2EF07F01C
:100EC800000EF46F000EF36FCFC0D9FFD0C0DAFF69
:100ED800DE2A000EDD22CFC0D9FFD0C0DAFFDECF78
:100EE800F6FFDDCFF7FF0800F5502A0AD8A47FEFF8
:100EF80007F081EF07F09EEF07F0CFC0D9FFD0C011
:100F0800DAFFDE2A000EDD22D1C0D9FFD2C0DAFF17
:100F1800DFCFD3F0020EDE26DFCFD4F0000EDD22C5
:100F2800D3C0D9FFD4C0DAFFDECFF3F0DDCFF4F0C1
:100F3800E2EF07F0CFC0D9FFD0C0DAFFDECF16F05E
:100F4800DDCF17F034EC13F016C0F3F017C0F4F04F
:100F5800B5EF07F0CFC0D9FFD0C0DAFFDE2A000E08
:100F6800DD22D00E0001D36FFF0ED46FCFC0D9FFA2
:100F7800D0C0DAFFDECFF6FFDDCFF7FF0800F5506F
:100F8800D56FD66BD351D527D451D623D6510AE184
:100F98000A0ED55DD8A0D3EF07F0D6EF07F0010E03
:100FA800D7EF07F0000ED96FDA6BD951DA11D8A450
:100FB800E0EF07F0E2EF07F0AEEF07F0CFC0D9FFA0
:100FC800D0C0DAFFDECFF6FFDDCFF7FF0800F5501F
:100FD800156E166ACDEC18F015500001E16FE1515D
:100FE800D8B4F9EF07F0FBEF07F035EF08F0CFC002
:100FF800D9FFD0C0DAFFDECFD3F0DDCFD4F0010EB9
:10100800D327000ED423D3C0F6FFD4C0F7FF0800BF
:10101800F550156E166ACDEC18F015500001E26F08
:10102800E251D8B41AEF08F01CEF08F035EF08F0D9
:10103800CFC0D9FFD0C0DAFFDECFD3F0DDCFD4F0F8
:10104800020ED327000ED423D3C0F6FFD4C0F7FF77
:101058000800F550156E166ACDEC18F01550000111
:10106800E36F660EE119D8A43CEF08F03EEF08F0F4
:101078007EEF08F0CFC0D9FFD0C0DAFFDECFF6FF91
:10108800DDCFF7FF0800F5CFE4F0CFC0D9FFD0C01F
:10109800DAFFDE2A000EDD22D1C0D9FFD2C0DAFF86
:1010A800DFCFD3F0040EDE26DFCFD4F0000EDD2232
:1010B800D3C0D9FFD4C0DAFFDECFDDF0DECFDEF05B
:1010C800DECFDFF0DECFE0F0CDC089F0CEC08AF011
:1010D800DDC08BF0DEC08CF0DFC08DF0E0C08EF09C
:1010E800E4C08FF081EC00F089C0CDF08AC0CEF06A
:1010F80064EF09F0E10E0F6E000E106EFC0E116E1B
:101108007F0E126E000E146E020E136E82EC15F036
:101118000F501010D8A493EF08F095EF08F011EFD6
:1011280009F0CFC0D9FFD0C0DAFFDECFD3F0DDCFD2
:10113800D4F0010E0001D327000ED423D3C0F6FF4C
:10114800D4C0F7FF0800F5CFE4F0BF0ED36FFF0E51
:10115800D46FCFC0D9FFD0C0DAFFDECFF6FFDDCF26
:10116800F7FF0800F550D56FD66BD351D527D4516A
:10117800D623D6510AE11A0ED55DD8A0C6EF08F0DD
:10118800C9EF08F0010ECAEF08F0000EDB6FDC6B48
:10119800DB51DC11D8B4D3EF08F0D5EF08F0EFEF4E
:1011A80008F0D1C0D9FFD2C0DAFFDFCFD3F0040EE8
:1011B800DE26DFCFD4F0000EDD22D3C0D9FFD4C0A5
:1011C800DAFFDECFDDF0DECFDEF0DECFDFF0DECF20
:1011D800E0F007EF09F0D1C0D9FFD2C0DAFFDFCFC6
:1011E800D3F0040EDE26DFCFD4F0000EDD22D3C00C
:1011F800D9FFD4C0DAFFDECFDDF0DECFDEF0DECF00
:10120800DFF0DECFE0F0020ECFC0D9FFD0C0DAFFAA
:10121800DE26000EDD2268EF08F0CFC0D9FFD0C06F
:10122800DAFFDECFF6FFDDCFF7FF0800F550250A1D
:10123800D8A421EF09F023EF09F03BEF09F0CFC064
:10124800D9FFD0C0DAFFDE2A000EDD22000E106EB4
:10125800250E0F6ECDC011F0CEC012F0EDEC15F0DA
:10126800000E0001CE6F010ECD6F64EF09F0CFC004
:10127800D9FFD0C0DAFFDE2A000EDD22000E000101
:10128800CE6F000ECD6F64EF09F0CFC0D9FFD0C08C
:10129800DAFFDECFF6FFDDCFF7FF0800F5500F6E5F
:1012A800106ACDC011F0CEC012F0EDEC15F0CFC031
:1012B800D9FFD0C0DAFFDE2A000EDD2234EF09F0B4
:1012C800120000017451800B7D6F745174257F6F7B
:1012D80073AF71EF09F073EF09F074EF09F07F81D4
:1012E8007F51D8B47AEF09F07CEF09F091EF09F05B
:1012F8007F29D8A482EF09F084EF09F08CEF09F078
:10130800000E716F000E726F000E736F000E746F17
:10131800738F000E746F99EF09F0000E716F000E55
:10132800726F000E736F000E746F7851800B7E6FB2
:101338007D517E19D8B4A3EF09F0A5EF09F0A6EF07
:1013480009F07D8D785178257E6F77AFAEEF09F083
:10135800B0EF09F0B1EF09F07E817E51D8B4B7EF54
:1013680009F0B9EF09F0CEEF09F07E29D8A4BFEF54
:1013780009F0C1EF09F0C9EF09F0000E756F000E12
:10138800766F000E776F000E786F778F000E786F8C
:10139800D6EF09F0000E756F000E766F000E776FAE
:1013A800000E786F7F517E5DD8B0DDEF09F0DFEF7A
:1013B80009F006EF0AF07DADE4EF09F0E6EF09F079
:1013C800E8EF09F0800E7D1B7FC080F07EC07FF0C3
:1013D80080C07EF071C080F075C071F080C075F07B
:1013E80072C080F076C072F080C076F073C080F072
:1013F80077C073F080C077F074C080F078C074F064
:1014080080C078F0000E806F7F517EC079F07A6BD3
:10141800795F000E7A5B7ABF1BEF0AF07A5109E117
:101428001A0E795DD8A01BEF0AF01DEF0AF054EFF1
:101438000AF07151721173117411D8A426EF0AF0D1
:1014480029EF0AF0010E2AEF0AF0000E806F000E55
:10145800716F000E726F000E736F000E746F7EC096
:101468007FF05DEF0AF080A13CEF0AF03EEF0AF052
:1014780044EF0AF0D89080310109806F46EF0AF0F6
:10148800D890803371A14BEF0AF04DEF0AF04EEF80
:101498000AF0808F743574337333723371337F2B52
:1014A8007E517F5DD8A05BEF0AF05DEF0AF037EF61
:1014B8000AF07DBD62EF0AF064EF0AF0A4EF0AF0CB
:1014C8007F51D8A46AEF0AF06CEF0AF076EF0AF0C1
:1014D800000E716F000E726F000E736F000E746F46
:1014E800C5EF0BF07551712776517223775173232D
:1014F8007851742374A183EF0AF085EF0AF031EF75
:101508000BF080A18AEF0AF08CEF0AF092EF0AF054
:10151800D89080310109806F94EF0AF0D890803319
:1015280071A199EF0AF09BEF0AF09CEF0AF0808F07
:10153800743574337333723371337F2B31EF0BF09F
:101548007551715D76517259775173597451800A8A
:10155800796F7851800A7959D8B0B5EF0AF0B7EFAA
:101568000AF0E2EF0AF07151755D796F72517659A0
:101578007A6F735177597B6F745178597C6FFF0E6E
:101588007925716FFF0E7A21726FFF0E7B21736FC1
:10159800FF0E7C21746F800E7D1B806D8051D8A456
:1015A800D8EF0AF0DAEF0AF0EAEF0AF0010E712735
:1015B800000E722373237423EAEF0AF07551715FEA
:1015C8007651725B7751735B7851745B715172110C
:1015D80073117411D8A4F3EF0AF0F5EF0AF02AEFAB
:1015E8000BF08051D8A4FBEF0AF0FDEF0AF02AEFC8
:1015F8000BF0000E716F000E726F000E736F000E0D
:10160800746FC5EF0BF0D890713772377337743732
:1016180080AF11EF0BF013EF0BF014EF0BF07181AB
:1016280080A119EF0BF01BEF0BF01FEF0BF0D88028
:10163800803721EF0BF0D89080377F51D8B427EF4F
:101648000BF029EF0BF02AEF0BF07F0773AF2FEFAA
:101658000BF031EF0BF007EF0BF0000E7E6F80AF51
:1016680038EF0BF03AEF0BF052EF0BF080C079F047
:101678007F0E7917D8B443EF0BF045EF0BF049EF25
:101688000BF0010E7E6F52EF0BF071A14EEF0BF0D5
:1016980050EF0BF052EF0BF045EF0BF07E51D8B442
:1016A80058EF0BF05AEF0BF085EF0BF0010E712796
:1016B800000E72237323742374A165EF0BF067EF98
:1016C8000BF085EF0BF071C079F072C07AF073C03F
:1016D8007BF074C07CF07C357C337B337A33793390
:1016E80079C071F07AC072F07BC073F07CC074F07E
:1016F8007F29D8B482EF0BF084EF0BF085EF0BF065
:101708007F2B7F29D8B48BEF0BF08DEF0BF095EF83
:101718000BF07F51D8A493EF0BF095EF0BF0A7EFE8
:101728000BF0000E716F000E726F000E736F000EDB
:10173800746F7F51D8A4A3EF0BF0A5EF0BF0A7EFC0
:101748000BF0000E7D6F7FA1ACEF0BF0AEEF0BF04E
:10175800B1EF0BF0738FB2EF0BF0739FD8907F311E
:10176800746F7DAFBAEF0BF0BCEF0BF0BDEF0BF071
:10177800748F71C071F072C072F073C073F074C06E
:1017880074F012003F50800B0001646F3F503F24FB
:101798006A6F3EAED2EF0BF0D4EF0BF0D5EF0BF043
:1017A8006A816A51D8B4DBEF0BF0DDEF0BF0F0EF94
:1017B8000BF06A29D8A4E3EF0BF0E5EF0BF0EDEF9F
:1017C8000BF0000E3C6E000E3D6E000E3E6E000EDD
:1017D8003F6E3E8EF8EF0BF0000E3C6E000E3D6E35
:1017E800000E3E6E000E3F6E4350800B641B43504C
:1017F8004324656F42AE03EF0CF005EF0CF006EFE3
:101808000CF065816551D8B40CEF0CF00EEF0CF0BC
:1018180021EF0CF06529D8A414EF0CF016EF0CF0AA
:101828001EEF0CF0000E406E000E416E000E426E70
:10183800000E436E428E29EF0CF0000E406E000E33
:10184800416E000E426E000E436E6551D8B42FEF04
:101858000CF031EF0CF039EF0CF06A51D8A437EFE7
:101868000CF039EF0CF043EF0CF0000E3C6E000E5C
:101878003D6E000E3E6E000E3F6EDBEF0DF04250E7
:101888003C02F3CF6FF0F4CF70F06F51666F676B67
:10189800686B696B70516B6F6C6B6D6B6E6B4150E5
:1018A8003D02F3CF6FF0F4CF70F06F516627000E52
:1018B80067236823692370516B27000E6C236D23FF
:1018C8006E2340503E02F3CF6FF0F4CF70F06F51AB
:1018D8006627000E67236823692370516B27000E63
:1018E8006C236D236E2368C069F067C068F066C01A
:1018F80067F0666B40503D02F3CF6FF0F4CF70F0A5
:101908006F51662770516723000E6823000E692304
:1019180041503C02F3CF6FF0F4CF70F06F5166275F
:1019280070516723000E6823000E692368C069F0B0
:1019380067C068F066C067F0666B40503C02F3CF42
:101948006FF0F4CF70F06F51662770516723000E67
:101958006823000E692342503D02F3CF6FF0F4CFA5
:1019680070F06F516B2770516C23000E6D23000EC1
:101978006E2341503E02F3CF6FF0F4CF70F06F51F9
:101988006B2770516C23000E6D23000E6E2342509E
:101998003E02F3CF6FF0F4CF70F06F51606F70516B
:1019A800616F626B636B62C063F061C062F060C0BC
:1019B80061F0606B60516B2761516C2362516D233C
:1019C80063516E2366C060F067C061F068C062F062
:1019D80069C063F0190EF6EF0CF0D89063336233E8
:1019E80061336033E82EF1EF0CF060516B276151E1
:1019F8006C2362516D2363516E2368C069F067C020
:101A080068F066C067F0666B65516AC060F0616B2C
:101A18006027000E6123820E60256F6FFF0E612123
:101A2800706F2CEF0DF0D8906B376C376D376E37C1
:101A380069AF21EF0DF023EF0DF024EF0DF06B816E
:101A4800D89066376737683769376F07D8A0700747
:101A58006DAF31EF0DF033EF0DF017EF0DF0000E15
:101A6800656F69AF3AEF0DF03CEF0DF060EF0DF0E8
:101A7800FF0E6615606FFF0E6715616FFF0E681524
:101A8800626F7F0E6915636F605161116211631196
:101A9800D8B451EF0DF053EF0DF057EF0DF0010EE4
:101AA800656F60EF0DF06BA15CEF0DF05EEF0DF070
:101AB80060EF0DF053EF0DF06551D8B466EF0DF0FF
:101AC80068EF0DF08CEF0DF0010E6B27000E6C2304
:101AD8006D236E236EA173EF0DF075EF0DF08CEF93
:101AE8000DF06BC060F06CC061F06DC062F06EC04C
:101AF80063F06335633362336133603360C06BF026
:101B080061C06CF062C06DF063C06EF06F4B702BFB
:101B180070BF97EF0DF0705108E16F29D8A097EFCB
:101B28000DF099EF0DF0A3EF0DF0000E6B6F000EA6
:101B38006C6F800E6D6F7F0E6E6FD1EF0DF070BF02
:101B4800B0EF0DF0705106E16F05D8B0AEEF0DF0B3
:101B5800B0EF0DF0BCEF0DF0000E6B6F000E6C6F68
:101B6800000E6D6F000E6E6F000E646FD1EF0DF0FA
:101B78006FC06AF0FF0E6B17FF0E6C177F0E6D17A4
:101B8800000E6E176AA1CBEF0DF0CDEF0DF0CEEF82
:101B98000DF06D8FD8906A316E6F64516E136BC003
:101BA8003CF06CC03DF06DC03EF06EC03FF01200DE
:101BB8002650800B336E265026243A6E25AEE7EF6A
:101BC8000DF0E9EF0DF0EAEF0DF03A803A50D8B495
:101BD800F0EF0DF0F2EF0DF007EF0EF03A28D8A471
:101BE800F8EF0DF0FAEF0DF002EF0EF0000E236E95
:101BF800000E246E000E256E000E266E258E000E39
:101C0800266E0FEF0EF0000E236E000E246E000EEF
:101C1800256E000E266E2A50800B331A2A502A246D
:101C28003B6E29AE1AEF0EF01CEF0EF01DEF0EF012
:101C38003B803B50D8B423EF0EF025EF0EF03AEF7F
:101C48000EF03B28D8A42BEF0EF02DEF0EF035EF59
:101C58000EF0000E276E000E286E000E296E000E84
:101C68002A6E298E000E2A6E42EF0EF0000E276EA5
:101C7800000E286E000E296E000E2A6E27502810BE
:101C880029102A10D8A44BEF0EF04DEF0EF065EF97
:101C98000EF0000E236E000E246E000E256E000E50
:101CA800266E800E25127F0E26123350261223C070
:101CB80023F024C024F025C025F026C026F0A8EF84
:101CC8000FF03A50D8A46BEF0EF06DEF0EF077EFEF
:101CD8000EF0000E236E000E246E000E256E000E10
:101CE800266EA8EF0FF03B503AC02BF02C6A2B5E03
:101CF800000E2C5A7F0E2B24346E000E2C20356ECD
:101D080023C02FF024C030F025C031F026C032F0B7
:101D1800000E236E000E246E000E256E000E266E39
:101D2800000E366E000E376E000E386E000E396EDD
:101D3800000E3B6ED8EF0EF03B50D8B4A6EF0EF075
:101D4800A8EF0EF0BFEF0EF0D8902F3630363136B0
:101D58003236D890233624362536263639AEB7EFB4
:101D68000EF0B9EF0EF0BAEF0EF02380D8903636A9
:101D780037363836393627502F5C28503058295096
:101D880031582A503258D8A0CCEF0EF0CEEF0EF0D2
:101D9800D7EF0EF0398C27502F5E2850305A295033
:101DA800315A2A50325A3B2A190E3B64DEEF0EF0A4
:101DB800E0EF0EF0A0EF0EF02F503010311032107F
:101DC800D8B4E9EF0EF0EBEF0EF003EF0FF036802A
:101DD80003EF0FF0D890233624362536263639AE51
:101DE800F8EF0EF0FAEF0EF0FBEF0EF02380D8902C
:101DF80036363736383639363406D8A0350625AE65
:101E080008EF0FF00AEF0FF0EEEF0EF0000E3B6E4A
:101E180039AE11EF0FF013EF0FF037EF0FF0FF0EA1
:101E280036142B6EFF0E37142C6EFF0E38142D6EE1
:101E38007F0E39142E6E2B502C102D102E10D8B466
:101E480028EF0FF02AEF0FF02EEF0FF0010E3B6E88
:101E580037EF0FF023A033EF0FF035EF0FF037EF28
:101E68000FF02AEF0FF03B50D8B43DEF0FF03FEFE3
:101E78000FF063EF0FF0010E2326000E2422252217
:101E8800262226A04AEF0FF04CEF0FF063EF0FF079
:101E980023C02BF024C02CF025C02DF026C02EF036
:101EA8002E342E322D322C322B322BC023F02CC064
:101EB80024F02DC025F02EC026F0344A352A35BE30
:101EC8006EEF0FF0355008E13428D8A06EEF0FF010
:101ED80070EF0FF07BEF0FF0000E356E3468000ED8
:101EE800236E000E246E000E256E000E266E35BE83
:101EF80088EF0FF0355006E13404D8B086EF0FF0C4
:101F080088EF0FF096EF0FF0000E356E000E346E6E
:101F1800000E236E000E246E000E256E000E266E37
:101F2800000E336E34C03AF03AA09DEF0FF09FEFE9
:101F38000FF0A2EF0FF0258EA3EF0FF0259ED8909B
:101F48003A30266E59EF0EF01200070E0F01386F67
:101F5800F70E926E080E806E9A0EC06E000EC16E5D
:101F6800030EC26E000E3B6F000E956E8368000E66
:101F7800396FC00E936E000E816E000E00017B6FEC
:101F8800000E7C6F800E7D6F3F0E7E6F6DEC17F03C
:101F9800F28AF184F28E60EC18F0000EBEEC1AF0B2
:101FA800D00E116E7F0E126EFDEC18F0830EC21665
:101FB800C282C2B2E2EF0FF0E4EF0FF0DDEF0FF0F4
:101FC800C4500001EE6FED6BC350ED250101006FA9
:101FD800000E0001EE210101016FC250830B0409BC
:101FE800C26EC282C2B2FBEF0FF0FDEF0FF0F6EF48
:101FF8000FF0C4500001EE6FED6BC350ED250101E9
:10200800026F000E0001EE210101036FC250830B25
:102018000809C26EC282C2B214EF10F016EF10F0B7
:102028000FEF10F0C4500001EE6FED6BC350ED25BB
:102038000101046F000E0001EE210101056F000E81
:10204800406E000E416E980E426E410E436E000EB9
:10205800276EC00E286E7F0E296E440E2A6E04C1AC
:1020680015F005C116F0176A186A000E5AEC12F03E
:1020780015C023F016C024F017C025F018C026F0AC
:10208800DCEC0DF023C03CF024C03DF025C03EF050
:1020980026C03FF0C6EC0BF03CC071F03DC072F0BA
:1020A8003EC073F03FC074F0000E0001756F000E63
:1020B800766F800E776F3F0E786F65EC09F071C010
:1020C80044F072C045F073C046F074C047F044C095
:1020D8007BF045C07CF046C07DF047C07EF06DECDB
:1020E80017F000C1EDF001C1EEF00001D890EE3319
:1020F800ED33D890EE33ED33EDC0F7F0EEC0F8F0E5
:10210800000E406E000E416EA00E426E400E436EF1
:10211800F7C015F0F8C016F0176A186A000E5AECE6
:1021280012F015C03CF016C03DF017C03EF018C0C4
:102138003FF0C6EC0BF03CC023F03DC024F03EC09D
:1021480025F03FC026F0000E276E000E286E7F0E89
:10215800296E430E2A6EDCEC0DF023C012F124C068
:1021680013F125C014F126C015F121EE02F0DECFDF
:10217800EDF0DDCFEEF00001D890EE33ED33D890DE
:10218800EE33ED33EDC0F5F0EEC0F6F0F5C00FF02C
:10219800F6C010F0000E126E050E116E80EC1AF0EB
:1021A8000FC015F010C016F0176A186A000E5AEC26
:1021B80012F015C023F016C024F017C025F018C07F
:1021C80026F0000E276E000E286E7F0E296E430E35
:1021D8002A6EDCEC0DF023C00EF124C00FF125C0EF
:1021E80010F126C011F1660E01017B6F010E7C6FA4
:1021F800AF0E7D6F7F0E7E6F12C17FF113C180F12C
:1022080014C181F115C182F15BEC19F0400EBEECEE
:102218001AF0660E116E010E126EFDEC18F0660EC5
:1022280001017B6F010E7C6FC10E7D6F7F0E7E6F8B
:102238000EC17FF10FC180F110C181F111C182F18E
:102248005BEC19F0100EBEEC1AF0660E116E010E62
:10225800126EFDEC18F0660E01017B6F010E7C6FAB
:10226800DE0E7D6F7F0E7E6F44C07FF145C080F12A
:1022780046C081F147C082F15BEC19F0500EBEEC0C
:102288001AF0660E116E010E126EFDEC18F0DAEF00
:102298000FF07FEF00F006C16CF007C16DF008C1C8
:1022A8006EF009C16FF03CC06CF03DC06DF03EC0EF
:1022B8006EF03FC06FF0810E0001606FFF0E616F1E
:1022C8006CC062F06DC063F06EC064F06FC065F002
:1022D800180E74EF11F0D8906533643363336233AA
:1022E800E82E6FEF11F0625160256A6F000E6121D0
:1022F8006B6F6BBF89EF11F06B5109E1170E6A5DC7
:10230800D8A089EF11F08BEF11F095EF11F03CC0D8
:102318003CF03DC03DF03EC03EF03FC03FF059EFBD
:1023280012F06BBF9AEF11F09CEF11F00DEF12F065
:102338006AC060F0FF0E616FFF0E626F7F0E636F01
:10234800000E646F6067ABEF11F0B3EF11F0643506
:102358006433633362336133602FA6EF11F061C0D9
:1023680066F062C067F063C068F064C069F000019D
:1023780066516C15606F67516D15616F68516E1508
:10238800626F69516F15636F60516111621163115A
:10239800D8A4D1EF11F0D3EF11F0D5EF11F08BEFF6
:1023A80011F06CC060F06DC061F06EC062F06FC07B
:1023B80063F0200EE5EF11F0D89063336233613398
:1023C8006033E82EE0EF11F0605161116211631182
:1023D800D8B4F1EF11F0F3EF11F0FBEF11F0665103
:1023E8006C2767516D2368516E2369516F23661DF1
:1023F800606F671D616F681D626F691D636F605153
:102408006C1761516D1762516E1763516F1751EF59
:1024180012F06CC060F06DC061F06EC062F06FC009
:1024280063F0200E1DEF12F0D890633362336133EE
:102438006033E82E18EF12F06051611162116311D8
:10244800D8A429EF12F02BEF12F035EF12F0000E9E
:102458006C6F000E6D6F000E6E6F000E6F6F51EF98
:1024680012F0D8906C35606F6D35616F6E35626FA4
:102478006F35636F6051611162116311D8B447EF12
:1024880012F049EF12F051EF12F0000E6C6F000ECF
:102498006D6F800E6E6FBF0E6F6F6CC03CF06DC0BD
:1024A8003DF06EC03EF06FC03FF012001D6E1D5033
:1024B800D8B461EF12F063EF12F085EF12F018BE96
:1024C8006AEF12F068EF12F085EF12F015C019F0FC
:1024D80016C01AF017C01BF018C01CF0191E1A1EDF
:1024E8001B1E1C1E192A000E1A221B221C2219C090
:1024F8001FF01AC020F01BC021F01CC022F08DEF85
:1025080012F015C01FF016C020F017C021F018C037
:1025180022F01550161017101810D8A496EF12F0C4
:1025280098EF12F0A2EF12F0000E156E000E166E64
:10253800000E176E000E186E33EF13F0960E1E6E17
:10254800ACEF12F01E2AD8902232213220321F32EC
:10255800000E1F14196E000E20141A6E000E21149E
:102568001B6EFE0E22141C6E19501A101B101C1024
:10257800D8A4C1EF12F0C3EF12F0A6EF12F0D1EF1A
:1025880012F01E2A010E1F26000E202221222222CE
:10259800D8902232213220321F32000E1F14196EB9
:1025A800000E20141A6E000E21141B6EFF0E22144A
:1025B8001C6E19501A101B101C10D8A4E6EF12F04C
:1025C800E8EF12F0C5EF12F0F0EF12F01E06D89007
:1025D8001F3620362136223621BEF5EF12F0F7EFEE
:1025E80012F0FFEF12F0020E1E60FDEF12F0FFEF87
:1025F80012F0EAEF12F01EB004EF13F006EF13F03A
:1026080007EF13F0219ED8901E321EC019F01A6AE7
:102618001B6A1C6A19C01CF01B6A1A6A196A1950CD
:102628001F121A5020121B5021121C5022121D502A
:10263800D8B421EF13F023EF13F02BEF13F018BEEB
:102648002AEF13F028EF13F02BEF13F0228E1FC0A0
:1026580015F020C016F021C017F022C018F01200A3
:10266800000E246E000E236E000E1D6E000E1C6EF2
:1026780040EF13F0164A172A010E226E16C0F6FF15
:1026880017C0F7FF0800F550200AD8B44EEF13F032
:1026980050EF13F06DEF13F0F70E186EFF0E196E72
:1026A80016C0F6FF17C0F7FF0800F5501A6E1B6A30
:1026B80018501A2619501B221B5009E1050E1A5CE6
:1026C800D8A069EF13F06BEF13F06DEF13F0000E65
:1026D800226E22C01EF01F6A1E501F10D8A477EF6A
:1026E80013F079EF13F03EEF13F083EF13F0000EC1
:1026F8001D6E010E1C6E164A172AB8EF13F016C08D
:10270800F6FF17C0F7FF0800F550186E196A195040
:10271800000AD8B492EF13F0B8EF13F018502B0A50
:10272800D8B47FEF13F0060AD8B47BEF13F0B8EFF4
:1027380013F023C00FF024C010F0000E126E0A0E22
:10274800116E80EC1AF016C0F6FF17C0F7FF0800EC
:10275800F5500F5E000E105A300E0F24236E000E37
:102768001020246E7FEF13F0D00E186EFF0E196E36
:1027780016C0F6FF17C0F7FF0800F5501A6E1B6A5F
:1027880018501A2619501B221B500AE10A0E1A5C0F
:10279800D8A0D1EF13F0D4EF13F0010ED5EF13F05A
:1027A800000E206E216A20502110D8A4DEEF13F00D
:1027B800E0EF13F09DEF13F01C501D10D8A4E7EFC5
:1027C80013F0E9EF13F0F7EF13F023C018F024C06B
:1027D80019F0181E191E184A192A18C016F019C01F
:1027E80017F0FBEF13F023C016F024C017F0120007
:1027F8000001733574357A6F7A51D8A406EF14F056
:1028080008EF14F012EF14F0000E716F000E726FE3
:10281800000E736F000E746F7FEF14F071C075F0C7
:1028280072C076F073C077F074C078F0200E22EF93
:1028380014F0D8907833773376337533E82E1DEF5C
:1028480014F07551796F738FFF0E7117FF0E7217A1
:10285800FF0E7317000E7417960E7A5F7ABF39EF62
:1028680014F037EF14F04FEF14F07A51800A970FF5
:10287800D8B041EF14F043EF14F045EF14F008EF2F
:1028880014F0D89074337333723371337A3F45EF51
:1028980014F067EF14F01F0E7A6555EF14F057EF38
:1028A80014F05FEF14F008EF14F0D8907137723716
:1028B800733774377A077A51D8A465EF14F067EF45
:1028C80014F059EF14F07951D8B46DEF14F06FEF9C
:1028D80014F077EF14F0741F731F721F716D000EE0
:1028E80072237323742371C071F072C072F073C0C5
:1028F80073F074C074F01200000E00017115796F46
:10290800000E72157A6F800E73157B6F7F0E74152B
:102918007C6F79517A117B117C11D8A496EF14F051
:1029280098EF14F0A0EF14F0000E716F000E726FA4
:10293800000E736F000E746F000E7515796F000E20
:1029480076157A6F800E77157B6F7F0E78157C6F02
:1029580079517A117B117C11D8A4B5EF14F0B7EF37
:1029680014F0BFEF14F0000E756F000E766F000EB6
:10297800776F000E786F74AFC4EF14F0C6EF14F0E1
:10298800CFEF14F0716D721FD8B0722B731FD8B0CF
:10299800732B800E745778AFD4EF14F0D6EF14F081
:1029A800DFEF14F0756D761FD8B0762B771FD8B08F
:1029B800772B800E7857000E711B000E721B000ECD
:1029C800731B800E741B000E751B000E761B000E09
:1029D800771B800E781B7551715D7651725977514E
:1029E800735978517459D8B0FCEF14F0FEEF14F015
:1029F80001EF15F0D89002EF15F0D88012000AC147
:102A080019F00BC11AF00CC11BF00DC11CF00FC05E
:102A180019F010C01AF011C01BF012C01CF019C038
:102A280013F01AC014F01BC015F01CC016F0180ED5
:102A380023EF15F0D8901632153214321332E82EDF
:102A48001EEF15F01350176E186A17501810D8A4F7
:102A580030EF15F032EF15F052EF15F0D890193429
:102A6800136E1A34146E1B34156E1C34166E135004
:102A7800141015101610D8A444EF15F046EF15F0F1
:102A88004CEF15F0000E106E020E0F6E81EF15F070
:102A9800000E106E030E0F6E81EF15F01728181038
:102AA800D8A459EF15F05BEF15F07DEF15F019C0BC
:102AB80013F01AC014F01BC015F01CC016F0090E54
:102AC800D8901336143615361636E82E64EF15F0FE
:102AD8001350141015101610D8B475EF15F078EFC0
:102AE80015F0010E79EF15F0000E0F6E106A81EFE8
:102AF80015F0000E106E040E0F6E12000FC016F0C7
:102B080010C017F011C018F012C019F01306D8A0A1
:102B18001406132806E11428D8A495EF15F097EFAA
:102B280015F0A4EF15F0000E106E000E0F6EECEF0E
:102B380015F0164A172A184A192A1306D8A0140697
:102B480016C0D9FF17C0DAFFDF50D8B4AEEF15F0C2
:102B5800B0EF15F0DBEF15F018C0F6FF19C0F7FF5E
:102B68000800F5500009D8B4BCEF15F0BEEF15F019
:102B7800DBEF15F013501410D8B4C5EF15F0C7EFFC
:102B880015F0DBEF15F016C0D9FF17C0DAFFDF50DC
:102B9800156E18C0F6FF19C0F7FF0800F550151894
:102BA800D8B4D9EF15F0DBEF15F09DEF15F016C08E
:102BB800D9FF17C0DAFFDF50156E18C0F6FF19C02D
:102BC800F7FF0800F550155C0F6E106AD8A01006C4
:102BD800120011501210D8B4F4EF15F0F6EF15F0FA
:102BE800FFEF15F011501210D8A4FDEF15F0FFEF0C
:102BF80015F004EF16F00F50C8EC1AF051EF16F06C
:102C080020EE04F01150D9261250DA22DE50DE10E0
:102C1800D8B411EF16F013EF16F02EEF16F020EEE1
:102C280004F01150D9261250DA2210EE02F0115099
:102C3800E1261250E222DE50E65CE650800A176E6A
:102C4800DE50800A1758D8B02CEF16F02EEF16F089
:102C580051EF16F020EE02F01150D9261250DA2268
:102C6800DECF13F0DDCF14F011C0D9FF12C0DAFFA8
:102C7800DECF15F0DDCF16F013501524D96E1450A1
:102C88001620DA6E0FC0DFFF20EE02F01150D926B1
:102C98001250DA22DE2A000EDD221200000E146E17
:102CA80012BE5BEF16F059EF16F061EF16F0116CDB
:102CB800121ED8B0122A010E146E10BE68EF16F05C
:102CC80066EF16F06EEF16F00F6C101ED8B0102AD3
:102CD800010E141A000E166E000E156E1150121009
:102CE800D8B479EF16F07BEF16F0A3EF16F0010ECB
:102CF800136E83EF16F0D89011361236132A12AEDF
:102D080088EF16F08AEF16F07FEF16F0D890153698
:102D1800163611500F5C12501058D8A096EF16F0C6
:102D280098EF16F09DEF16F011500F5E1250105AE2
:102D38001580D89012321132132E8AEF16F01450E3
:102D4800D8B4A9EF16F0ABEF16F0AFEF16F0156C8C
:102D5800161ED8B0162A15C00FF016C010F01200B3
:102D680048A0B9EF16F0BBEF16F0C5EF16F021C07A
:102D780018F022C019F01FC01AF020C01BF0D2ECC6
:102D880019F024BECAEF16F0CCEF16F0D2EF16F009
:102D980023C028F024C029F0D6EF16F0000E296EC3
:102DA800000E286E000E276E000E266EE8EF16F055
:102DB800000E106E200E0F6E1FC011F020C012F012
:102DC800EDEC15F0264A272A2850265C2750800A61
:102DD800256E2950800A2558D8A0F5EF16F0F7EF90
:102DE80016F0DCEF16F048B0FCEF16F0FEEF16F028
:102DF80008EF17F021C018F022C019F01FC01AF010
:102E080020C01BF0D2EC19F021C00FF022C010F046
:102E180065EC1AF028500F241F6E29501020206EE0
:102E28001200000E146E10BE1EEF17F01CEF17F004
:102E380024EF17F00F6C101ED8B0102A010E146E74
:102E480012BE2BEF17F029EF17F02FEF17F0116CC8
:102E5800121ED8B0122A11501210D8B436EF17F03B
:102E680038EF17F05CEF17F0010E136E40EF17F014
:102E7800D89011361236132A12AE45EF17F047EFE5
:102E880017F03CEF17F011500F5C12501058D8A0F3
:102E980050EF17F052EF17F056EF17F011500F5E82
:102EA8001250105AD89012321132132E47EF17F0E1
:102EB8001450D8B462EF17F064EF17F068EF17F00A
:102EC8000F6C101ED8B0102A0FC00FF010C010F0F1
:102ED80012007BC03CF07CC03DF07DC03EF07EC05F
:102EE8003FF0000E406E000E416EB40E426E430E6F
:102EF800436EC6EC0BF03CC07BF03DC07CF03EC09E
:102F08007DF03FC07EF07BC040F07CC041F07DC0CA
:102F180042F07EC043F077C13CF078C13DF079C102
:102F28003EF07AC13FF0C6EC0BF03CC027F03DC044
:102F380028F03EC029F03FC02AF0800E236E960E7E
:102F4800246E180E256E4B0E266EDCEC0DF023C099
:102F580071F024C072F025C073F026C074F0FCEC48
:102F680013F071C0F9F072C0FAF00001F9510008CD
:102F7800F96FFA51D8A0E82A0008FA6F800ED56ECA
:102F88001200000E0F14176E000E1014186E800E2B
:102F98001114196E7F0E12141A6E1750181019108A
:102FA8001A10D8A4DAEF17F0DCEF17F0E4EF17F0F7
:102FB800000E0F6E000E106E000E116E000E126ED7
:102FC800000E1314176E000E1414186E800E1514CC
:102FD800196E7F0E16141A6E1750181019101A1041
:102FE800D8A4F9EF17F0FBEF17F003EF18F0000E75
:102FF800136E000E146E000E156E000E166E135032
:103008000F180FE1145010180CE11550111809E1B0
:1030180016501218D8B413EF18F015EF18F018EF6F
:1030280018F0D89019EF18F0D8801200660EF66ED6
:10303800350EF76E000EF86E01EE66F010EE15F024
:103048000900F5CFEEFFE550E150FAE18A0EF66E81
:10305800350EF76E000EF86E00EEF5F010EE04F087
:103068000900F5CFEEFFE550E150FAE18E0EF66E5D
:10307800350EF76E000EF86E0900F5CF4FF0090017
:10308800F5CF50F001EE00F0660EEE6AE806FDE1BD
:103098000001F46BF36BF26BF16BF06BEF6B00EE0E
:1030A80044F00B0EEE6AE806FDE151905192000ED5
:1030B800F86E0001A9EF0FF08198819AC30E126E85
:1030C800CD0EE82EFED7122EFCD700F08150F00B63
:1030D800030F816E818A819A410E126EEE0EE82EE0
:1030E800FED7122EFCD700D0818A819A030E126E69
:1030F800980EE82EFED7122EFCD7818A819A030EED
:10310800126E980EE82EFED7122EFCD78150F00BC7
:10311800020F816E818A819A280EF4EC19F00C0E48
:10312800F4EC19F0A6EC1AF0060EF4EC19F0120003
:10313800E7C0EBF0E8C0ECF0000E0001F06F000E05
:10314800EF6FBAEF18F0E5C0CDF0E6C0CEF0EB0EA9
:10315800CF6F000ED06FE9C0D1F0EAC0D2F0AFEC6B
:1031680006F00001CD51EF27CE51F023EBC0F6FF5A
:10317800ECC0F7FF0800F5500009D8A4C6EF18F016
:10318800C8EF18F0A7EF18F0EFC0E5F0F0C0E6F0D0
:103198001200BF0E176EFF0E186E15C019F016C07C
:1031A8001AF01750192618501A221A500AE11A0E46
:1031B800195CD8A0E2EF18F0E5EF18F0010EE6EF81
:1031C80018F0000E1B6E1C6A1B501C10D8B4EFEFD1
:1031D80018F0F1EF18F0F8EF18F0200E1510156E32
:1031E8001650166EFCEF18F015C015F016C016F044
:1031F8001200818814EF19F011C0F6FF12C0F7FF12
:10320800F86A050EF76403D00800F55005D0F6CF2C
:10321800E1FFF7CFE2FFE750F4EC19F0114A122A68
:1032280011C0F6FF12C0F7FFF86A050EF76403D065
:103238000800F55005D0F6CFE1FFF7CFE2FFE750E1
:103248000009D8A42AEF19F02CEF19F000EF19F0B3
:10325800120011C015F012C016F00FC017F010C000
:1032680018F01550136E1650146E154A162A13C00E
:10327800F6FF14C0F7FFF86A17C0D9FF18C0DAFFC5
:10328800174A182A050EF76403D00800F55005D030
:10329800F6CFE1FFF7CFE2FFE750DF6EDF50D8A4AB
:1032A80058EF19F05AEF19F035EF19F012007F0EA8
:1032B8000101836F010E846F7BC185F17CC186F1AA
:1032C800000E886F000E876F000E8A6F000E896FE0
:1032D800850E0001E56F010EE66F7DC1E7F07EC146
:1032E800E8F0830EE96F010EEA6F9CEC18F001011B
:1032F80087517B25D96E88517C21DA6E000EDF6EEE
:103308001200010E156E200E0F181010D8B48FEF92
:1033180019F091EF19F0AAEF19F0F70E116EFF0EE0
:10332800126E0FC013F010C014F011501326125073
:103338001422145009E1050E135CD8A0A6EF19F069
:10334800A8EF19F0AAEF19F0000E156E15C00FF0CE
:10335800106A1200000E0001851B000E861B000E6D
:10336800871B800E881B81C071F082C072F083C0F9
:1033780073F084C074F085C075F086C076F087C09D
:1033880077F088C078F065EC09F071C081F072C000
:1033980082F073C083F074C084F01200000E1E6EB9
:1033A800000E1D6EE3EF19F01CC00FF0106A1AC072
:1033B80011F01BC012F0EDEC15F01D4A1E2A1D502D
:1033C8001824D96E1E501920DA6EDF501C6E1C505E
:1033D800D8A4F1EF19F0F3EF19F0D8EF19F01200B3
:1033E800106E850EE82EFED700F010C00FF00F3AD1
:1033F8000F0E0F160F0E0F168150F00B0F24816E53
:10340800818A819A10C00FF00F0E0F168150F00BB1
:103418000F24816E818A819A1200BF0E116EFF0EF1
:10342800126E0FC013F010C014F011501326125072
:10343800142214500AE11A0E135CD8A026EF1AF0D1
:1034480029EF1AF0010E2AEF1AF0000E0F6E106A1B
:1034580012000F50101011101210D8B436EF1AF0D5
:1034680038EF1AF040EF1AF0000E0F1A000E101A7B
:10347800000E111A800E121A0FC00FF010C010F0B3
:1034880011C011F012C012F01200D00E116EFF0E12
:10349800126E0FC013F010C014F011501326125002
:1034A800142214500AE10A0E135CD8A05EEF1AF039
:1034B80061EF1AF0010E62EF1AF0000E0F6E106A3B
:1034C80012000FC011F010C012F06DEF1AF00F4A81
:1034D800102A0FC0D9FF10C0DAFFDF50D8A477EF49
:1034E8001AF079EF1AF06BEF1AF011500F5C0F6EAB
:1034F80012501058106E12000F501102F3CF13F033
:10350800F4CF14F00F501202F35014261050110289
:10351800F350142613C00FF014C010F0120001501D
:103528000302F3CF05F0F4CF06F001500402F35084
:10353800062602500302F350062605C001F006C015
:1035480002F012008198010EF4EC19F01A0E116EB7
:10355800F80EE82EFED7112EFCD700D0120020203E
:103568002020202020202020202020202020000093
:0335780000004010
:10357C00116E81981150800FF4EC19F01200FF00BD
:06358C00FF0080001200A8
:107E46000080828486888B8D8F919396989A9C9ECB
:107E5600A0A3A5A7A9ABADAFB1B3B5B7B9BBBDBF1D
:107E6600C1C3C5C7C9CACCCED0D1D3D5D6D8DADB23
:107E7600DDDEE0E1E3E4E5E7E8E9EAECEDEEEFF08C
:107E8600F1F2F3F4F5F6F7F7F8F9F9FAFBFBFCFC77
:107E9600FDFDFDFEFEFEFFFFFFFFFFFFFFFFFFFFF5
:107EA600FFFEFEFEFDFDFDFCFCFBFBFAF9F9F8F713
:107EB600F7F6F5F4F3F2F1F0EFEEEDECEAE9E8E7C8
:107EC600E5E4E3E1E0DEDDDBDAD8D6D5D3D1D0CE0A
:107ED600CCCAC9C7C5C3C1BFBDBBB9B7B5B3B1AFBE
:107EE600ADABA9A7A5A3A09E9C9A989693918F8DBA
:107EF6008B88868482807D7B79777472706E6C69DC
:107F0600676563615F5C5A58565452504E4C4A48F6
:107F1600464442403E3C3A38363533312F2E2C2AE1
:107F26002927252422211F1E1C1B1A181716151374
:107F36001211100F0E0D0C0B0A090808070606058C
:107F46000404030302020201010100000000000014
:107F560000000000000101010202020303040405FF
:107F66000606070808090A0B0C0D0E0F101112134E
:107F7600151617181A1B1C1E1F2122242527292A0D
:107F86002C2E2F31333536383A3C3E404244464853
:107F96004A4C4E50525456585A5C5F616365676945
:107FA6006C6E70727477797B7D4761696E28502D8F
:107FB60050293A2025342E326656004F6666736580
:107FC600743A2025342E3266560053494E204745D2
:107FD6004E455241544F5200467265713A2025343F
:107FE6002E3266487A00494E46004E414E00696E72
:0A7FF60066006E616E006C6600000C
:020000040020DA
:08000000FFFFFFFFFFFFFFFF00
:020000040030CA
:0E000000FF221F3CFFBF85FF0FC00FE00F4027
:00000001FF
